{
  "address": "0x3861Bbad13D9EAb41C5377FB15f772712D374957",
  "abi": [
    {
      "inputs": [
        {
          "internalType": "address",
          "name": "vrfCoordinatorV2",
          "type": "address"
        },
        {
          "internalType": "uint256",
          "name": "entranceFee",
          "type": "uint256"
        },
        {
          "internalType": "bytes32",
          "name": "gasLane",
          "type": "bytes32"
        },
        {
          "internalType": "uint64",
          "name": "subscriptionId",
          "type": "uint64"
        },
        {
          "internalType": "uint32",
          "name": "callbackGasLimit",
          "type": "uint32"
        },
        {
          "internalType": "uint256",
          "name": "interval",
          "type": "uint256"
        }
      ],
      "stateMutability": "nonpayable",
      "type": "constructor"
    },
    {
      "inputs": [
        {
          "internalType": "address",
          "name": "have",
          "type": "address"
        },
        {
          "internalType": "address",
          "name": "want",
          "type": "address"
        }
      ],
      "name": "OnlyCoordinatorCanFulfill",
      "type": "error"
    },
    {
      "inputs": [],
      "name": "Raffle_NotOpen",
      "type": "error"
    },
    {
      "inputs": [],
      "name": "Raffle_SendMoreToEnterRaffle",
      "type": "error"
    },
    {
      "inputs": [],
      "name": "Raffle_TransferFailed",
      "type": "error"
    },
    {
      "inputs": [
        {
          "internalType": "uint256",
          "name": "balance",
          "type": "uint256"
        },
        {
          "internalType": "uint256",
          "name": "numPlayers",
          "type": "uint256"
        },
        {
          "internalType": "uint256",
          "name": "raffleState",
          "type": "uint256"
        }
      ],
      "name": "Raffle_UpKeepNotNeeded",
      "type": "error"
    },
    {
      "anonymous": false,
      "inputs": [
        {
          "indexed": true,
          "internalType": "address",
          "name": "player",
          "type": "address"
        }
      ],
      "name": "RaffleEnter",
      "type": "event"
    },
    {
      "anonymous": false,
      "inputs": [
        {
          "indexed": true,
          "internalType": "address",
          "name": "winner",
          "type": "address"
        }
      ],
      "name": "RaffleWinnerPicked",
      "type": "event"
    },
    {
      "anonymous": false,
      "inputs": [
        {
          "indexed": true,
          "internalType": "uint256",
          "name": "requestId",
          "type": "uint256"
        }
      ],
      "name": "RequestedRaffleWinner",
      "type": "event"
    },
    {
      "inputs": [
        {
          "internalType": "bytes",
          "name": "",
          "type": "bytes"
        }
      ],
      "name": "checkUpkeep",
      "outputs": [
        {
          "internalType": "bool",
          "name": "upkeepNeeded",
          "type": "bool"
        },
        {
          "internalType": "bytes",
          "name": "",
          "type": "bytes"
        }
      ],
      "stateMutability": "view",
      "type": "function"
    },
    {
      "inputs": [],
      "name": "enterRaffle",
      "outputs": [],
      "stateMutability": "payable",
      "type": "function"
    },
    {
      "inputs": [],
      "name": "getBalance",
      "outputs": [
        {
          "internalType": "uint256",
          "name": "",
          "type": "uint256"
        }
      ],
      "stateMutability": "view",
      "type": "function"
    },
    {
      "inputs": [],
      "name": "getCallBackGasLimit",
      "outputs": [
        {
          "internalType": "uint256",
          "name": "",
          "type": "uint256"
        }
      ],
      "stateMutability": "view",
      "type": "function"
    },
    {
      "inputs": [],
      "name": "getCoordinator",
      "outputs": [
        {
          "internalType": "contract VRFCoordinatorV2Interface",
          "name": "",
          "type": "address"
        }
      ],
      "stateMutability": "view",
      "type": "function"
    },
    {
      "inputs": [],
      "name": "getEntranceFee",
      "outputs": [
        {
          "internalType": "uint256",
          "name": "",
          "type": "uint256"
        }
      ],
      "stateMutability": "view",
      "type": "function"
    },
    {
      "inputs": [],
      "name": "getGasLane",
      "outputs": [
        {
          "internalType": "bytes32",
          "name": "",
          "type": "bytes32"
        }
      ],
      "stateMutability": "view",
      "type": "function"
    },
    {
      "inputs": [],
      "name": "getInterval",
      "outputs": [
        {
          "internalType": "uint256",
          "name": "",
          "type": "uint256"
        }
      ],
      "stateMutability": "view",
      "type": "function"
    },
    {
      "inputs": [],
      "name": "getNumOfPlayers",
      "outputs": [
        {
          "internalType": "uint256",
          "name": "",
          "type": "uint256"
        }
      ],
      "stateMutability": "view",
      "type": "function"
    },
    {
      "inputs": [],
      "name": "getNumWords",
      "outputs": [
        {
          "internalType": "uint256",
          "name": "",
          "type": "uint256"
        }
      ],
      "stateMutability": "pure",
      "type": "function"
    },
    {
      "inputs": [
        {
          "internalType": "uint256",
          "name": "index",
          "type": "uint256"
        }
      ],
      "name": "getPlayers",
      "outputs": [
        {
          "internalType": "address",
          "name": "",
          "type": "address"
        }
      ],
      "stateMutability": "view",
      "type": "function"
    },
    {
      "inputs": [],
      "name": "getRaffleState",
      "outputs": [
        {
          "internalType": "enum Raffle.RaffleState",
          "name": "",
          "type": "uint8"
        }
      ],
      "stateMutability": "view",
      "type": "function"
    },
    {
      "inputs": [],
      "name": "getSubScriptionId",
      "outputs": [
        {
          "internalType": "uint64",
          "name": "",
          "type": "uint64"
        }
      ],
      "stateMutability": "view",
      "type": "function"
    },
    {
      "inputs": [],
      "name": "getWinner",
      "outputs": [
        {
          "internalType": "address",
          "name": "",
          "type": "address"
        }
      ],
      "stateMutability": "view",
      "type": "function"
    },
    {
      "inputs": [
        {
          "internalType": "bytes",
          "name": "",
          "type": "bytes"
        }
      ],
      "name": "performUpkeep",
      "outputs": [],
      "stateMutability": "nonpayable",
      "type": "function"
    },
    {
      "inputs": [
        {
          "internalType": "uint256",
          "name": "requestId",
          "type": "uint256"
        },
        {
          "internalType": "uint256[]",
          "name": "randomWords",
          "type": "uint256[]"
        }
      ],
      "name": "rawFulfillRandomWords",
      "outputs": [],
      "stateMutability": "nonpayable",
      "type": "function"
    }
  ],
  "transactionHash": "0xc71990e8bc7b08d4bf93c5932fd47658951000369353685503ee22a480810ca0",
  "args": [
    "0x8103b0a8a00be2ddc778e6e7eaa21791cd364625",
    "10000000000000000",
    "0x474e34a077df58807dbe9c96d3c009b23b3c6d0cce433e59bbf5b34f823bc56c",
    11388,
    500000,
    30
  ],
  "numDeployments": 1,
  "solcInputHash": "f76ff8c3240b8aa5be2758fcb08bda9d",
  "bytecode": "0x6101606040523480156200001257600080fd5b5060405162001f1638038062001f16833981810160405281019062000038919062000294565b858073ffffffffffffffffffffffffffffffffffffffff1660808173ffffffffffffffffffffffffffffffffffffffff1681525050508460a081815250508573ffffffffffffffffffffffffffffffffffffffff1660c08173ffffffffffffffffffffffffffffffffffffffff16815250508360e081815250508267ffffffffffffffff166101008167ffffffffffffffff16815250508163ffffffff166101208163ffffffff16815250506000600160146101000a81548160ff021916908360018111156200010d576200010c62000330565b5b0217905550426002819055508061014081815250505050505050506200035f565b600080fd5b600073ffffffffffffffffffffffffffffffffffffffff82169050919050565b6000620001608262000133565b9050919050565b620001728162000153565b81146200017e57600080fd5b50565b600081519050620001928162000167565b92915050565b6000819050919050565b620001ad8162000198565b8114620001b957600080fd5b50565b600081519050620001cd81620001a2565b92915050565b6000819050919050565b620001e881620001d3565b8114620001f457600080fd5b50565b6000815190506200020881620001dd565b92915050565b600067ffffffffffffffff82169050919050565b6200022d816200020e565b81146200023957600080fd5b50565b6000815190506200024d8162000222565b92915050565b600063ffffffff82169050919050565b6200026e8162000253565b81146200027a57600080fd5b50565b6000815190506200028e8162000263565b92915050565b60008060008060008060c08789031215620002b457620002b36200012e565b5b6000620002c489828a0162000181565b9650506020620002d789828a01620001bc565b9550506040620002ea89828a01620001f7565b9450506060620002fd89828a016200023c565b93505060806200031089828a016200027d565b92505060a06200032389828a01620001bc565b9150509295509295509295565b7f4e487b7100000000000000000000000000000000000000000000000000000000600052602160045260246000fd5b60805160a05160c05160e051610100516101205161014051611b24620003f260003960008181610a2d0152610be501526000818161062201526108530152600081816108300152610c0d01526000818161080f0152610c3501526000818161073f015281816107d30152610b930152600081816103ac01526104b10152600081816103f101526104450152611b246000f3fe6080604052600436106100f35760003560e01c806353a2c19a1161008a5780638e7ea5b2116100595780638e7ea5b2146102fc57806391ad27b414610327578063a508153314610352578063c19dd76b1461037d576100f3565b806353a2c19a1461023d578063565429de146102685780636e04ff0d1461029357806371977fe0146102d1576100f3565b80632cfcc539116100c65780632cfcc539146101a25780633cdb9361146101ac5780634585e33b146101d7578063460e204914610200576100f3565b806309bc33a7146100f8578063115cbaf51461012357806312065fe01461014e5780631fe543e314610179575b600080fd5b34801561010457600080fd5b5061010d6103a8565b60405161011a91906110cf565b60405180910390f35b34801561012f57600080fd5b506101386103d0565b6040516101459190611161565b60405180910390f35b34801561015a57600080fd5b506101636103e7565b60405161017091906110cf565b60405180910390f35b34801561018557600080fd5b506101a0600480360381019061019b9190611315565b6103ef565b005b6101aa6104af565b005b3480156101b857600080fd5b506101c161061e565b6040516101ce91906110cf565b60405180910390f35b3480156101e357600080fd5b506101fe60048036038101906101f991906113cc565b61064c565b005b34801561020c57600080fd5b5061022760048036038101906102229190611419565b61094a565b6040516102349190611487565b60405180910390f35b34801561024957600080fd5b50610252610991565b60405161025f91906110cf565b60405180910390f35b34801561027457600080fd5b5061027d6109a0565b60405161028a91906110cf565b60405180910390f35b34801561029f57600080fd5b506102ba60048036038101906102b59190611557565b6109ac565b6040516102c892919061163a565b60405180910390f35b3480156102dd57600080fd5b506102e6610b8f565b6040516102f391906116c9565b60405180910390f35b34801561030857600080fd5b50610311610bb7565b60405161031e9190611487565b60405180910390f35b34801561033357600080fd5b5061033c610be1565b60405161034991906110cf565b60405180910390f35b34801561035e57600080fd5b50610367610c09565b6040516103749190611707565b60405180910390f35b34801561038957600080fd5b50610392610c31565b60405161039f919061173b565b60405180910390f35b60007f0000000000000000000000000000000000000000000000000000000000000000905090565b6000600160149054906101000a900460ff16905090565b600047905090565b7f000000000000000000000000000000000000000000000000000000000000000073ffffffffffffffffffffffffffffffffffffffff163373ffffffffffffffffffffffffffffffffffffffff16146104a157337f00000000000000000000000000000000000000000000000000000000000000006040517f1cf993f4000000000000000000000000000000000000000000000000000000008152600401610498929190611756565b60405180910390fd5b6104ab8282610c59565b5050565b7f0000000000000000000000000000000000000000000000000000000000000000341015610509576040517f3e48252900000000000000000000000000000000000000000000000000000000815260040160405180910390fd5b6000600181111561051d5761051c6110ea565b5b600160149054906101000a900460ff16600181111561053f5761053e6110ea565b5b14610576576040517fd6e19a8d00000000000000000000000000000000000000000000000000000000815260040160405180910390fd5b6000339080600181540180825580915050600190039060005260206000200160009091909190916101000a81548173ffffffffffffffffffffffffffffffffffffffff021916908373ffffffffffffffffffffffffffffffffffffffff1602179055503373ffffffffffffffffffffffffffffffffffffffff167f0805e1d667bddb8a95f0f09880cf94f403fb596ce79928d9f29b74203ba284d460405160405180910390a2565b60007f000000000000000000000000000000000000000000000000000000000000000063ffffffff16905090565b61068a6040518060400160405280601381526020017f626567696e20706572666f726d55706b65657000000000000000000000000000815250610e8a565b60006106a4604051806020016040528060008152506109ac565b509050806107135747600080549050600160149054906101000a900460ff1660018111156106d5576106d46110ea565b5b6040517fc61de3e100000000000000000000000000000000000000000000000000000000815260040161070a9392919061177f565b60405180910390fd5b60018060146101000a81548160ff02191690836001811115610738576107376110ea565b5b02179055507f000000000000000000000000000000000000000000000000000000000000000073ffffffffffffffffffffffffffffffffffffffff1663a21a23e46040518163ffffffff1660e01b81526004016020604051808303816000875af11580156107aa573d6000803e3d6000fd5b505050506040513d601f19601f820116820180604052508101906107ce91906117e2565b5060007f000000000000000000000000000000000000000000000000000000000000000073ffffffffffffffffffffffffffffffffffffffff16635d3b1d307f00000000000000000000000000000000000000000000000000000000000000007f000000000000000000000000000000000000000000000000000000000000000060037f000000000000000000000000000000000000000000000000000000000000000060016040518663ffffffff1660e01b815260040161089495949392919061184b565b6020604051808303816000875af11580156108b3573d6000803e3d6000fd5b505050506040513d601f19601f820116820180604052508101906108d791906118b3565b9050807fcd6e45c8998311cab7e9d4385596cac867e20a0587194b954fa3a731c93ce78b60405160405180910390a26109446040518060400160405280602081526020017f656d697420526571756573746564526166666c6557696e6e6572206576656e74815250610e8a565b50505050565b600080828154811061095f5761095e6118e0565b5b9060005260206000200160009054906101000a900473ffffffffffffffffffffffffffffffffffffffff169050919050565b6000600163ffffffff16905090565b60008080549050905090565b6000606060008060018111156109c5576109c46110ea565b5b600160149054906101000a900460ff1660018111156109e7576109e66110ea565b5b149050610a296040518060400160405280600781526020017f69734f70656e3a0000000000000000000000000000000000000000000000000081525082610f23565b60007f000000000000000000000000000000000000000000000000000000000000000060025442610a5a919061193e565b119050610a9c6040518060400160405280600d81526020017f6f766572496e74657276616c3a0000000000000000000000000000000000000081525082610f23565b600080600080549050119050610ae76040518060400160405280600b81526020017f686173506c61796572733a00000000000000000000000000000000000000000081525082610f23565b60008047119050610b2d6040518060400160405280600b81526020017f68617342616c616e63653a00000000000000000000000000000000000000000081525082610f23565b838015610b375750825b8015610b405750815b8015610b495750805b9550856040518060400160405280600381526020017f30783000000000000000000000000000000000000000000000000000000000008152509550955050505050915091565b60007f0000000000000000000000000000000000000000000000000000000000000000905090565b6000600160009054906101000a900473ffffffffffffffffffffffffffffffffffffffff16905090565b60007f0000000000000000000000000000000000000000000000000000000000000000905090565b60007f0000000000000000000000000000000000000000000000000000000000000000905090565b60007f0000000000000000000000000000000000000000000000000000000000000000905090565b6000808054905082600081518110610c7457610c736118e0565b5b6020026020010151610c8691906119a1565b90506000808281548110610c9d57610c9c6118e0565b5b9060005260206000200160009054906101000a900473ffffffffffffffffffffffffffffffffffffffff16905080600160006101000a81548173ffffffffffffffffffffffffffffffffffffffff021916908373ffffffffffffffffffffffffffffffffffffffff1602179055506000600160146101000a81548160ff02191690836001811115610d3157610d306110ea565b5b0217905550600067ffffffffffffffff811115610d5157610d506111d2565b5b604051908082528060200260200182016040528015610d7f5781602001602082028036833780820191505090505b5060009080519060200190610d95929190611005565b504260028190555060008173ffffffffffffffffffffffffffffffffffffffff1647604051610dc390611a03565b60006040518083038185875af1925050503d8060008114610e00576040519150601f19603f3d011682016040523d82523d6000602084013e610e05565b606091505b5050905080610e40576040517fba31c4f300000000000000000000000000000000000000000000000000000000815260040160405180910390fd5b8173ffffffffffffffffffffffffffffffffffffffff167ff7ba90128c58206af15e5981c98c83a29bc536a92b9a3e43b8062497c2f2844360405160405180910390a25050505050565b610f2081604051602401610e9e9190611a6d565b6040516020818303038152906040527f41304fac000000000000000000000000000000000000000000000000000000007bffffffffffffffffffffffffffffffffffffffffffffffffffffffff19166020820180517bffffffffffffffffffffffffffffffffffffffffffffffffffffffff8381831617835250505050610fbf565b50565b610fbb8282604051602401610f39929190611a8f565b6040516020818303038152906040527fc3b55635000000000000000000000000000000000000000000000000000000007bffffffffffffffffffffffffffffffffffffffffffffffffffffffff19166020820180517bffffffffffffffffffffffffffffffffffffffffffffffffffffffff8381831617835250505050610fbf565b5050565b610fd681610fce610fd9610ffa565b63ffffffff16565b50565b60006a636f6e736f6c652e6c6f679050600080835160208501845afa505050565b61108f819050919050565b82805482825590600052602060002090810192821561107e579160200282015b8281111561107d5782518260006101000a81548173ffffffffffffffffffffffffffffffffffffffff021916908373ffffffffffffffffffffffffffffffffffffffff16021790555091602001919060010190611025565b5b50905061108b9190611099565b5090565b611097611abf565b565b5b808211156110b257600081600090555060010161109a565b5090565b6000819050919050565b6110c9816110b6565b82525050565b60006020820190506110e460008301846110c0565b92915050565b7f4e487b7100000000000000000000000000000000000000000000000000000000600052602160045260246000fd5b6002811061112a576111296110ea565b5b50565b600081905061113b82611119565b919050565b600061114b8261112d565b9050919050565b61115b81611140565b82525050565b60006020820190506111766000830184611152565b92915050565b6000604051905090565b600080fd5b600080fd5b611199816110b6565b81146111a457600080fd5b50565b6000813590506111b681611190565b92915050565b600080fd5b6000601f19601f8301169050919050565b7f4e487b7100000000000000000000000000000000000000000000000000000000600052604160045260246000fd5b61120a826111c1565b810181811067ffffffffffffffff82111715611229576112286111d2565b5b80604052505050565b600061123c61117c565b90506112488282611201565b919050565b600067ffffffffffffffff821115611268576112676111d2565b5b602082029050602081019050919050565b600080fd5b600061129161128c8461124d565b611232565b905080838252602082019050602084028301858111156112b4576112b3611279565b5b835b818110156112dd57806112c988826111a7565b8452602084019350506020810190506112b6565b5050509392505050565b600082601f8301126112fc576112fb6111bc565b5b813561130c84826020860161127e565b91505092915050565b6000806040838503121561132c5761132b611186565b5b600061133a858286016111a7565b925050602083013567ffffffffffffffff81111561135b5761135a61118b565b5b611367858286016112e7565b9150509250929050565b600080fd5b60008083601f84011261138c5761138b6111bc565b5b8235905067ffffffffffffffff8111156113a9576113a8611371565b5b6020830191508360018202830111156113c5576113c4611279565b5b9250929050565b600080602083850312156113e3576113e2611186565b5b600083013567ffffffffffffffff8111156114015761140061118b565b5b61140d85828601611376565b92509250509250929050565b60006020828403121561142f5761142e611186565b5b600061143d848285016111a7565b91505092915050565b600073ffffffffffffffffffffffffffffffffffffffff82169050919050565b600061147182611446565b9050919050565b61148181611466565b82525050565b600060208201905061149c6000830184611478565b92915050565b600080fd5b600067ffffffffffffffff8211156114c2576114c16111d2565b5b6114cb826111c1565b9050602081019050919050565b82818337600083830152505050565b60006114fa6114f5846114a7565b611232565b905082815260208101848484011115611516576115156114a2565b5b6115218482856114d8565b509392505050565b600082601f83011261153e5761153d6111bc565b5b813561154e8482602086016114e7565b91505092915050565b60006020828403121561156d5761156c611186565b5b600082013567ffffffffffffffff81111561158b5761158a61118b565b5b61159784828501611529565b91505092915050565b60008115159050919050565b6115b5816115a0565b82525050565b600081519050919050565b600082825260208201905092915050565b60005b838110156115f55780820151818401526020810190506115da565b60008484015250505050565b600061160c826115bb565b61161681856115c6565b93506116268185602086016115d7565b61162f816111c1565b840191505092915050565b600060408201905061164f60008301856115ac565b81810360208301526116618184611601565b90509392505050565b6000819050919050565b600061168f61168a61168584611446565b61166a565b611446565b9050919050565b60006116a182611674565b9050919050565b60006116b382611696565b9050919050565b6116c3816116a8565b82525050565b60006020820190506116de60008301846116ba565b92915050565b600067ffffffffffffffff82169050919050565b611701816116e4565b82525050565b600060208201905061171c60008301846116f8565b92915050565b6000819050919050565b61173581611722565b82525050565b6000602082019050611750600083018461172c565b92915050565b600060408201905061176b6000830185611478565b6117786020830184611478565b9392505050565b600060608201905061179460008301866110c0565b6117a160208301856110c0565b6117ae60408301846110c0565b949350505050565b6117bf816116e4565b81146117ca57600080fd5b50565b6000815190506117dc816117b6565b92915050565b6000602082840312156117f8576117f7611186565b5b6000611806848285016117cd565b91505092915050565b600061ffff82169050919050565b6118268161180f565b82525050565b600063ffffffff82169050919050565b6118458161182c565b82525050565b600060a082019050611860600083018861172c565b61186d60208301876116f8565b61187a604083018661181d565b611887606083018561183c565b611894608083018461183c565b9695505050505050565b6000815190506118ad81611190565b92915050565b6000602082840312156118c9576118c8611186565b5b60006118d78482850161189e565b91505092915050565b7f4e487b7100000000000000000000000000000000000000000000000000000000600052603260045260246000fd5b7f4e487b7100000000000000000000000000000000000000000000000000000000600052601160045260246000fd5b6000611949826110b6565b9150611954836110b6565b925082820390508181111561196c5761196b61190f565b5b92915050565b7f4e487b7100000000000000000000000000000000000000000000000000000000600052601260045260246000fd5b60006119ac826110b6565b91506119b7836110b6565b9250826119c7576119c6611972565b5b828206905092915050565b600081905092915050565b50565b60006119ed6000836119d2565b91506119f8826119dd565b600082019050919050565b6000611a0e826119e0565b9150819050919050565b600081519050919050565b600082825260208201905092915050565b6000611a3f82611a18565b611a498185611a23565b9350611a598185602086016115d7565b611a62816111c1565b840191505092915050565b60006020820190508181036000830152611a878184611a34565b905092915050565b60006040820190508181036000830152611aa98185611a34565b9050611ab860208301846115ac565b9392505050565b7f4e487b7100000000000000000000000000000000000000000000000000000000600052605160045260246000fdfea264697066735822122019a96648254d20bf6602ac08dc54380032d551a4db879baa0135f29c1bd8610864736f6c63430008180033",
  "devdoc": {
    "kind": "dev",
    "methods": {},
    "version": 1
  },
  "userdoc": {
    "kind": "user",
    "methods": {},
    "version": 1
  },
  "storageLayout": {
    "storage": [
      {
        "astId": 304,
        "contract": "contracts/Raffle.sol:Raffle",
        "label": "s_players",
        "offset": 0,
        "slot": "0",
        "type": "t_array(t_address_payable)dyn_storage"
      },
      {
        "astId": 321,
        "contract": "contracts/Raffle.sol:Raffle",
        "label": "s_winner",
        "offset": 0,
        "slot": "1",
        "type": "t_address_payable"
      },
      {
        "astId": 324,
        "contract": "contracts/Raffle.sol:Raffle",
        "label": "s_raffleState",
        "offset": 20,
        "slot": "1",
        "type": "t_enum(RaffleState)299"
      },
      {
        "astId": 326,
        "contract": "contracts/Raffle.sol:Raffle",
        "label": "s_lastTimeStamp",
        "offset": 0,
        "slot": "2",
        "type": "t_uint256"
      }
    ],
    "types": {
      "t_address_payable": {
        "encoding": "inplace",
        "label": "address payable",
        "numberOfBytes": "20"
      },
      "t_array(t_address_payable)dyn_storage": {
        "base": "t_address_payable",
        "encoding": "dynamic_array",
        "label": "address payable[]",
        "numberOfBytes": "32"
      },
      "t_enum(RaffleState)299": {
        "encoding": "inplace",
        "label": "enum Raffle.RaffleState",
        "numberOfBytes": "1"
      },
      "t_uint256": {
        "encoding": "inplace",
        "label": "uint256",
        "numberOfBytes": "32"
      }
    }
  }
}